{
  "contractName": "ProductVerification",
  "abi": [
    {
      "inputs": [],
      "stateMutability": "nonpayable",
      "type": "constructor"
    },
    {
      "anonymous": false,
      "inputs": [
        {
          "indexed": false,
          "internalType": "string",
          "name": "reason",
          "type": "string"
        }
      ],
      "name": "ErrorLogging",
      "type": "event"
    },
    {
      "anonymous": false,
      "inputs": [
        {
          "indexed": false,
          "internalType": "string",
          "name": "reason",
          "type": "string"
        }
      ],
      "name": "ErrorLoggingWhileUpdating",
      "type": "event"
    },
    {
      "inputs": [
        {
          "internalType": "uint16",
          "name": "",
          "type": "uint16"
        },
        {
          "internalType": "uint256",
          "name": "",
          "type": "uint256"
        }
      ],
      "name": "products",
      "outputs": [
        {
          "internalType": "string",
          "name": "name",
          "type": "string"
        },
        {
          "internalType": "uint256",
          "name": "manufacturingDate",
          "type": "uint256"
        },
        {
          "internalType": "uint256",
          "name": "transferDate",
          "type": "uint256"
        },
        {
          "internalType": "uint256",
          "name": "expiryDate",
          "type": "uint256"
        },
        {
          "internalType": "string",
          "name": "currentOwner",
          "type": "string"
        },
        {
          "internalType": "string",
          "name": "OwnerlicenseNumber",
          "type": "string"
        },
        {
          "internalType": "address",
          "name": "currentOwnerHash",
          "type": "address"
        },
        {
          "internalType": "string",
          "name": "MedicineID",
          "type": "string"
        },
        {
          "internalType": "string",
          "name": "qrCode",
          "type": "string"
        }
      ],
      "stateMutability": "view",
      "type": "function",
      "constant": true
    },
    {
      "inputs": [
        {
          "internalType": "string",
          "name": "_name",
          "type": "string"
        },
        {
          "internalType": "uint256",
          "name": "_manufacturingDate",
          "type": "uint256"
        },
        {
          "internalType": "uint256",
          "name": "_transferDate",
          "type": "uint256"
        },
        {
          "internalType": "uint256",
          "name": "_expiryDate",
          "type": "uint256"
        },
        {
          "internalType": "string",
          "name": "_currentOwner",
          "type": "string"
        },
        {
          "internalType": "string",
          "name": "_licenseNumber",
          "type": "string"
        },
        {
          "internalType": "string",
          "name": "_qrCode",
          "type": "string"
        },
        {
          "internalType": "string",
          "name": "_medicineID",
          "type": "string"
        },
        {
          "internalType": "address",
          "name": "_currentOwnerHash",
          "type": "address"
        }
      ],
      "name": "addProduct",
      "outputs": [],
      "stateMutability": "payable",
      "type": "function",
      "payable": true
    },
    {
      "inputs": [
        {
          "internalType": "uint16",
          "name": "index",
          "type": "uint16"
        },
        {
          "internalType": "uint256",
          "name": "_transferDate",
          "type": "uint256"
        },
        {
          "internalType": "string",
          "name": "_updateOwner",
          "type": "string"
        },
        {
          "internalType": "string",
          "name": "_licenseNumber",
          "type": "string"
        },
        {
          "internalType": "address",
          "name": "_updateOwnerHash",
          "type": "address"
        }
      ],
      "name": "updateOwnership",
      "outputs": [],
      "stateMutability": "payable",
      "type": "function",
      "payable": true
    },
    {
      "inputs": [],
      "name": "returnSize",
      "outputs": [
        {
          "internalType": "uint16",
          "name": "",
          "type": "uint16"
        }
      ],
      "stateMutability": "view",
      "type": "function",
      "constant": true
    },
    {
      "inputs": [
        {
          "internalType": "uint16",
          "name": "index",
          "type": "uint16"
        }
      ],
      "name": "returnDetails",
      "outputs": [
        {
          "components": [
            {
              "internalType": "string",
              "name": "name",
              "type": "string"
            },
            {
              "internalType": "uint256",
              "name": "manufacturingDate",
              "type": "uint256"
            },
            {
              "internalType": "uint256",
              "name": "transferDate",
              "type": "uint256"
            },
            {
              "internalType": "uint256",
              "name": "expiryDate",
              "type": "uint256"
            },
            {
              "internalType": "string",
              "name": "currentOwner",
              "type": "string"
            },
            {
              "internalType": "string",
              "name": "OwnerlicenseNumber",
              "type": "string"
            },
            {
              "internalType": "address",
              "name": "currentOwnerHash",
              "type": "address"
            },
            {
              "internalType": "string",
              "name": "MedicineID",
              "type": "string"
            },
            {
              "internalType": "string",
              "name": "qrCode",
              "type": "string"
            }
          ],
          "internalType": "struct Product_Lib.Product[]",
          "name": "",
          "type": "tuple[]"
        }
      ],
      "stateMutability": "view",
      "type": "function",
      "constant": true
    },
    {
      "inputs": [
        {
          "internalType": "uint16",
          "name": "index",
          "type": "uint16"
        }
      ],
      "name": "currentOwner",
      "outputs": [
        {
          "components": [
            {
              "internalType": "string",
              "name": "name",
              "type": "string"
            },
            {
              "internalType": "uint256",
              "name": "manufacturingDate",
              "type": "uint256"
            },
            {
              "internalType": "uint256",
              "name": "transferDate",
              "type": "uint256"
            },
            {
              "internalType": "uint256",
              "name": "expiryDate",
              "type": "uint256"
            },
            {
              "internalType": "string",
              "name": "currentOwner",
              "type": "string"
            },
            {
              "internalType": "string",
              "name": "OwnerlicenseNumber",
              "type": "string"
            },
            {
              "internalType": "address",
              "name": "currentOwnerHash",
              "type": "address"
            },
            {
              "internalType": "string",
              "name": "MedicineID",
              "type": "string"
            },
            {
              "internalType": "string",
              "name": "qrCode",
              "type": "string"
            }
          ],
          "internalType": "struct Product_Lib.Product",
          "name": "",
          "type": "tuple"
        }
      ],
      "stateMutability": "view",
      "type": "function",
      "constant": true
    }
  ],
  "bytecode": "0x60806040523480156200001157600080fd5b50600073ffffffffffffffffffffffffffffffffffffffff163373ffffffffffffffffffffffffffffffffffffffff160362000084576040517f08c379a00000000000000000000000000000000000000000000000000000000081526004016200007b9062000149565b60405180910390fd5b33600060026101000a81548173ffffffffffffffffffffffffffffffffffffffff021916908373ffffffffffffffffffffffffffffffffffffffff16021790555060008060006101000a81548161ffff021916908361ffff1602179055506200016b565b600082825260208201905092915050565b7f6e6f2d6f776e65722d70726f7669646564000000000000000000000000000000600082015250565b600062000131601183620000e8565b91506200013e82620000f9565b602082019050919050565b60006020820190508181036000830152620001648162000122565b9050919050565b613248806200017b6000396000f3fe6080604052600436106100555760003560e01c806316498be21461005a5780634d55c3fd14610097578063511da210146100dc57806396eaede7146100f8578063afc0805e14610114578063def2a2f914610151575b600080fd5b34801561006657600080fd5b50610081600480360381019061007c9190611843565b61017c565b60405161008e9190611b06565b60405180910390f35b3480156100a357600080fd5b506100be60048036038101906100b99190611b54565b610545565b6040516100d399989796959493929190611bfc565b60405180910390f35b6100f660048036038101906100f19190611e0d565b610878565b005b610112600480360381019061010d9190611ec0565b610f7d565b005b34801561012057600080fd5b5061013b60048036038101906101369190611843565b611265565b60405161014891906120f7565b60405180910390f35b34801561015d57600080fd5b50610166611683565b6040516101739190612128565b60405180910390f35b6060600160008361ffff1661ffff168152602001908152602001600020805480602002602001604051908101604052809291908181526020016000905b8282101561053a5783829060005260206000209060090201604051806101200160405290816000820180546101ed90612172565b80601f016020809104026020016040519081016040528092919081815260200182805461021990612172565b80156102665780601f1061023b57610100808354040283529160200191610266565b820191906000526020600020905b81548152906001019060200180831161024957829003601f168201915b5050505050815260200160018201548152602001600282015481526020016003820154815260200160048201805461029d90612172565b80601f01602080910402602001604051908101604052809291908181526020018280546102c990612172565b80156103165780601f106102eb57610100808354040283529160200191610316565b820191906000526020600020905b8154815290600101906020018083116102f957829003601f168201915b5050505050815260200160058201805461032f90612172565b80601f016020809104026020016040519081016040528092919081815260200182805461035b90612172565b80156103a85780601f1061037d576101008083540402835291602001916103a8565b820191906000526020600020905b81548152906001019060200180831161038b57829003601f168201915b505050505081526020016006820160009054906101000a900473ffffffffffffffffffffffffffffffffffffffff1673ffffffffffffffffffffffffffffffffffffffff1673ffffffffffffffffffffffffffffffffffffffff16815260200160078201805461041790612172565b80601f016020809104026020016040519081016040528092919081815260200182805461044390612172565b80156104905780601f1061046557610100808354040283529160200191610490565b820191906000526020600020905b81548152906001019060200180831161047357829003601f168201915b505050505081526020016008820180546104a990612172565b80601f01602080910402602001604051908101604052809291908181526020018280546104d590612172565b80156105225780601f106104f757610100808354040283529160200191610522565b820191906000526020600020905b81548152906001019060200180831161050557829003601f168201915b505050505081525050815260200190600101906101b9565b505050509050919050565b6001602052816000526040600020818154811061056157600080fd5b90600052602060002090600902016000915091505080600001805461058590612172565b80601f01602080910402602001604051908101604052809291908181526020018280546105b190612172565b80156105fe5780601f106105d3576101008083540402835291602001916105fe565b820191906000526020600020905b8154815290600101906020018083116105e157829003601f168201915b50505050509080600101549080600201549080600301549080600401805461062590612172565b80601f016020809104026020016040519081016040528092919081815260200182805461065190612172565b801561069e5780601f106106735761010080835404028352916020019161069e565b820191906000526020600020905b81548152906001019060200180831161068157829003601f168201915b5050505050908060050180546106b390612172565b80601f01602080910402602001604051908101604052809291908181526020018280546106df90612172565b801561072c5780601f106107015761010080835404028352916020019161072c565b820191906000526020600020905b81548152906001019060200180831161070f57829003601f168201915b5050505050908060060160009054906101000a900473ffffffffffffffffffffffffffffffffffffffff169080600701805461076790612172565b80601f016020809104026020016040519081016040528092919081815260200182805461079390612172565b80156107e05780601f106107b5576101008083540402835291602001916107e0565b820191906000526020600020905b8154815290600101906020018083116107c357829003601f168201915b5050505050908060080180546107f590612172565b80601f016020809104026020016040519081016040528092919081815260200182805461082190612172565b801561086e5780601f106108435761010080835404028352916020019161086e565b820191906000526020600020905b81548152906001019060200180831161085157829003601f168201915b5050505050905089565b6000600160008761ffff1661ffff168152602001908152602001600020805480602002602001604051908101604052809291908181526020016000905b82821015610c365783829060005260206000209060090201604051806101200160405290816000820180546108e990612172565b80601f016020809104026020016040519081016040528092919081815260200182805461091590612172565b80156109625780601f1061093757610100808354040283529160200191610962565b820191906000526020600020905b81548152906001019060200180831161094557829003601f168201915b5050505050815260200160018201548152602001600282015481526020016003820154815260200160048201805461099990612172565b80601f01602080910402602001604051908101604052809291908181526020018280546109c590612172565b8015610a125780601f106109e757610100808354040283529160200191610a12565b820191906000526020600020905b8154815290600101906020018083116109f557829003601f168201915b50505050508152602001600582018054610a2b90612172565b80601f0160208091040260200160405190810160405280929190818152602001828054610a5790612172565b8015610aa45780601f10610a7957610100808354040283529160200191610aa4565b820191906000526020600020905b815481529060010190602001808311610a8757829003601f168201915b505050505081526020016006820160009054906101000a900473ffffffffffffffffffffffffffffffffffffffff1673ffffffffffffffffffffffffffffffffffffffff1673ffffffffffffffffffffffffffffffffffffffff168152602001600782018054610b1390612172565b80601f0160208091040260200160405190810160405280929190818152602001828054610b3f90612172565b8015610b8c5780601f10610b6157610100808354040283529160200191610b8c565b820191906000526020600020905b815481529060010190602001808311610b6f57829003601f168201915b50505050508152602001600882018054610ba590612172565b80601f0160208091040260200160405190810160405280929190818152602001828054610bd190612172565b8015610c1e5780601f10610bf357610100808354040283529160200191610c1e565b820191906000526020600020905b815481529060010190602001808311610c0157829003601f168201915b505050505081525050815260200190600101906108b5565b5050505090506000604051610c4a906116d6565b604051809103906000f080158015610c66573d6000803e3d6000fd5b5090508073ffffffffffffffffffffffffffffffffffffffff16634851df60836040518263ffffffff1660e01b8152600401610ca29190611b06565b60006040518083038186803b158015610cba57600080fd5b505afa925050508015610ccb575060015b610d4457610cd76121b0565b806308c379a003610d335750610ceb6121d2565b80610cf65750610d35565b7f614bff9c72d0eafafa0ec68b42e972173e16062f1c63e16ee4425368f370815481604051610d259190612262565b60405180910390a150610d3f565b505b3d6000803e3d6000fd5b610f74565b600160008861ffff1661ffff16815260200190815260200160002060405180610120016040528084600081518110610d7f57610d7e612284565b5b602002602001015160000151815260200184600081518110610da457610da3612284565b5b602002602001015160200151815260200188815260200184600081518110610dcf57610dce612284565b5b60200260200101516060015181526020018781526020018681526020018573ffffffffffffffffffffffffffffffffffffffff16815260200184600081518110610e1c57610e1b612284565b5b602002602001015160e00151815260200184600081518110610e4157610e40612284565b5b6020026020010151610100015181525090806001815401808255809150506001900390600052602060002090600902016000909190919091506000820151816000019080519060200190610e969291906116e3565b506020820151816001015560408201518160020155606082015181600301556080820151816004019080519060200190610ed19291906116e3565b5060a0820151816005019080519060200190610eee9291906116e3565b5060c08201518160060160006101000a81548173ffffffffffffffffffffffffffffffffffffffff021916908373ffffffffffffffffffffffffffffffffffffffff16021790555060e0820151816007019080519060200190610f529291906116e3565b50610100820151816008019080519060200190610f709291906116e3565b5050505b50505050505050565b6000604051610f8b90611769565b604051809103906000f080158015610fa7573d6000803e3d6000fd5b5090508073ffffffffffffffffffffffffffffffffffffffff16631502cf0b600160008060009054906101000a900461ffff1661ffff1661ffff1681526020019081526020016000206040518263ffffffff1660e01b815260040161100c9190612571565b60006040518083038186803b15801561102457600080fd5b505afa925050508015611035575060015b6110ae576110416121b0565b806308c379a00361109d57506110556121d2565b80611060575061109f565b7fdcbe72357183be3854887085e70fd914c4c1733a94106878f48e8ba069d8fabc8160405161108f9190612262565b60405180910390a1506110a9565b505b3d6000803e3d6000fd5b611259565b600160008060009054906101000a900461ffff1661ffff1661ffff1681526020019081526020016000206040518061012001604052808c81526020018b81526020018a81526020018981526020018881526020018781526020018473ffffffffffffffffffffffffffffffffffffffff16815260200185815260200186815250908060018154018082558091505060019003906000526020600020906009020160009091909190915060008201518160000190805190602001906111739291906116e3565b5060208201518160010155604082015181600201556060820151816003015560808201518160040190805190602001906111ae9291906116e3565b5060a08201518160050190805190602001906111cb9291906116e3565b5060c08201518160060160006101000a81548173ffffffffffffffffffffffffffffffffffffffff021916908373ffffffffffffffffffffffffffffffffffffffff16021790555060e082015181600701908051906020019061122f9291906116e3565b5061010082015181600801908051906020019061124d9291906116e3565b50505061125861169a565b5b50505050505050505050565b61126d611776565b6000600160008461ffff1661ffff168152602001908152602001600020805480602002602001604051908101604052809291908181526020016000905b8282101561162b5783829060005260206000209060090201604051806101200160405290816000820180546112de90612172565b80601f016020809104026020016040519081016040528092919081815260200182805461130a90612172565b80156113575780601f1061132c57610100808354040283529160200191611357565b820191906000526020600020905b81548152906001019060200180831161133a57829003601f168201915b5050505050815260200160018201548152602001600282015481526020016003820154815260200160048201805461138e90612172565b80601f01602080910402602001604051908101604052809291908181526020018280546113ba90612172565b80156114075780601f106113dc57610100808354040283529160200191611407565b820191906000526020600020905b8154815290600101906020018083116113ea57829003601f168201915b5050505050815260200160058201805461142090612172565b80601f016020809104026020016040519081016040528092919081815260200182805461144c90612172565b80156114995780601f1061146e57610100808354040283529160200191611499565b820191906000526020600020905b81548152906001019060200180831161147c57829003601f168201915b505050505081526020016006820160009054906101000a900473ffffffffffffffffffffffffffffffffffffffff1673ffffffffffffffffffffffffffffffffffffffff1673ffffffffffffffffffffffffffffffffffffffff16815260200160078201805461150890612172565b80601f016020809104026020016040519081016040528092919081815260200182805461153490612172565b80156115815780601f1061155657610100808354040283529160200191611581565b820191906000526020600020905b81548152906001019060200180831161156457829003601f168201915b5050505050815260200160088201805461159a90612172565b80601f01602080910402602001604051908101604052809291908181526020018280546115c690612172565b80156116135780601f106115e857610100808354040283529160200191611613565b820191906000526020600020905b8154815290600101906020018083116115f657829003601f168201915b505050505081525050815260200190600101906112aa565b5050505090506000815190506000811461166f578160018261164d91906125c2565b8151811061165e5761165d612284565b5b60200260200101519250505061167e565b611677611776565b8093505050505b919050565b60008060009054906101000a900461ffff16905090565b60008081819054906101000a900461ffff16809291906116b9906125f6565b91906101000a81548161ffff021916908361ffff16021790555050565b6105f98061262183390190565b8280546116ef90612172565b90600052602060002090601f0160209004810192826117115760008555611758565b82601f1061172a57805160ff1916838001178555611758565b82800160010185558215611758579182015b8281111561175757825182559160200191906001019061173c565b5b50905061176591906117d8565b5090565b6105f980612c1a83390190565b604051806101200160405280606081526020016000815260200160008152602001600081526020016060815260200160608152602001600073ffffffffffffffffffffffffffffffffffffffff16815260200160608152602001606081525090565b5b808211156117f15760008160009055506001016117d9565b5090565b6000604051905090565b600080fd5b600080fd5b600061ffff82169050919050565b61182081611809565b811461182b57600080fd5b50565b60008135905061183d81611817565b92915050565b600060208284031215611859576118586117ff565b5b60006118678482850161182e565b91505092915050565b600081519050919050565b600082825260208201905092915050565b6000819050602082019050919050565b600081519050919050565b600082825260208201905092915050565b60005b838110156118d65780820151818401526020810190506118bb565b838111156118e5576000848401525b50505050565b6000601f19601f8301169050919050565b60006119078261189c565b61191181856118a7565b93506119218185602086016118b8565b61192a816118eb565b840191505092915050565b6000819050919050565b61194881611935565b82525050565b600073ffffffffffffffffffffffffffffffffffffffff82169050919050565b60006119798261194e565b9050919050565b6119898161196e565b82525050565b60006101208301600083015184820360008601526119ad82826118fc565b91505060208301516119c2602086018261193f565b5060408301516119d5604086018261193f565b5060608301516119e8606086018261193f565b5060808301518482036080860152611a0082826118fc565b91505060a083015184820360a0860152611a1a82826118fc565b91505060c0830151611a2f60c0860182611980565b5060e083015184820360e0860152611a4782826118fc565b915050610100830151848203610100860152611a6382826118fc565b9150508091505092915050565b6000611a7c838361198f565b905092915050565b6000602082019050919050565b6000611a9c82611870565b611aa6818561187b565b935083602082028501611ab88561188c565b8060005b85811015611af45784840389528151611ad58582611a70565b9450611ae083611a84565b925060208a01995050600181019050611abc565b50829750879550505050505092915050565b60006020820190508181036000830152611b208184611a91565b905092915050565b611b3181611935565b8114611b3c57600080fd5b50565b600081359050611b4e81611b28565b92915050565b60008060408385031215611b6b57611b6a6117ff565b5b6000611b798582860161182e565b9250506020611b8a85828601611b3f565b9150509250929050565b600082825260208201905092915050565b6000611bb08261189c565b611bba8185611b94565b9350611bca8185602086016118b8565b611bd3816118eb565b840191505092915050565b611be781611935565b82525050565b611bf68161196e565b82525050565b6000610120820190508181036000830152611c17818c611ba5565b9050611c26602083018b611bde565b611c33604083018a611bde565b611c406060830189611bde565b8181036080830152611c528188611ba5565b905081810360a0830152611c668187611ba5565b9050611c7560c0830186611bed565b81810360e0830152611c878185611ba5565b9050818103610100830152611c9c8184611ba5565b90509a9950505050505050505050565b600080fd5b600080fd5b7f4e487b7100000000000000000000000000000000000000000000000000000000600052604160045260246000fd5b611cee826118eb565b810181811067ffffffffffffffff82111715611d0d57611d0c611cb6565b5b80604052505050565b6000611d206117f5565b9050611d2c8282611ce5565b919050565b600067ffffffffffffffff821115611d4c57611d4b611cb6565b5b611d55826118eb565b9050602081019050919050565b82818337600083830152505050565b6000611d84611d7f84611d31565b611d16565b905082815260208101848484011115611da057611d9f611cb1565b5b611dab848285611d62565b509392505050565b600082601f830112611dc857611dc7611cac565b5b8135611dd8848260208601611d71565b91505092915050565b611dea8161196e565b8114611df557600080fd5b50565b600081359050611e0781611de1565b92915050565b600080600080600060a08688031215611e2957611e286117ff565b5b6000611e378882890161182e565b9550506020611e4888828901611b3f565b945050604086013567ffffffffffffffff811115611e6957611e68611804565b5b611e7588828901611db3565b935050606086013567ffffffffffffffff811115611e9657611e95611804565b5b611ea288828901611db3565b9250506080611eb388828901611df8565b9150509295509295909350565b60008060008060008060008060006101208a8c031215611ee357611ee26117ff565b5b60008a013567ffffffffffffffff811115611f0157611f00611804565b5b611f0d8c828d01611db3565b9950506020611f1e8c828d01611b3f565b9850506040611f2f8c828d01611b3f565b9750506060611f408c828d01611b3f565b96505060808a013567ffffffffffffffff811115611f6157611f60611804565b5b611f6d8c828d01611db3565b95505060a08a013567ffffffffffffffff811115611f8e57611f8d611804565b5b611f9a8c828d01611db3565b94505060c08a013567ffffffffffffffff811115611fbb57611fba611804565b5b611fc78c828d01611db3565b93505060e08a013567ffffffffffffffff811115611fe857611fe7611804565b5b611ff48c828d01611db3565b9250506101006120068c828d01611df8565b9150509295985092959850929598565b600061012083016000830151848203600086015261203482826118fc565b9150506020830151612049602086018261193f565b50604083015161205c604086018261193f565b50606083015161206f606086018261193f565b506080830151848203608086015261208782826118fc565b91505060a083015184820360a08601526120a182826118fc565b91505060c08301516120b660c0860182611980565b5060e083015184820360e08601526120ce82826118fc565b9150506101008301518482036101008601526120ea82826118fc565b9150508091505092915050565b600060208201905081810360008301526121118184612016565b905092915050565b61212281611809565b82525050565b600060208201905061213d6000830184612119565b92915050565b7f4e487b7100000000000000000000000000000000000000000000000000000000600052602260045260246000fd5b6000600282049050600182168061218a57607f821691505b60208210810361219d5761219c612143565b5b50919050565b60008160e01c9050919050565b600060033d11156121cf5760046000803e6121cc6000516121a3565b90505b90565b600060443d1061225f576121e46117f5565b60043d036004823e80513d602482011167ffffffffffffffff8211171561220c57505061225f565b808201805167ffffffffffffffff81111561222a575050505061225f565b80602083010160043d03850181111561224757505050505061225f565b61225682602001850186611ce5565b82955050505050505b90565b6000602082019050818103600083015261227c8184611ba5565b905092915050565b7f4e487b7100000000000000000000000000000000000000000000000000000000600052603260045260246000fd5b600081549050919050565b60008190508160005260206000209050919050565b60008190508160005260206000209050919050565b600081546122f581612172565b6122ff81866118a7565b9450600182166000811461231a576001811461232c5761235f565b60ff198316865260208601935061235f565b612335856122d3565b60005b8381101561235757815481890152600182019150602081019050612338565b808801955050505b50505092915050565b60008160001c9050919050565b6000819050919050565b600061239261238d83612368565b612375565b9050919050565b600073ffffffffffffffffffffffffffffffffffffffff82169050919050565b60006123cc6123c783612368565b612399565b9050919050565b60006101208301600080840185830360008701526123f183826122e8565b925050600184015490506124048161237f565b612411602087018261193f565b50600284015490506124228161237f565b61242f604087018261193f565b50600384015490506124408161237f565b61244d606087018261193f565b5060048401858303608087015261246483826122e8565b9250506005840185830360a087015261247d83826122e8565b92505060068401549050612490816123b9565b61249d60c0870182611980565b506007840185830360e08701526124b483826122e8565b925050600884018583036101008701526124ce83826122e8565b925050819250505092915050565b60006124e883836123d3565b905092915050565b6000600982019050919050565b6000612508826122b3565b612512818561187b565b935083602082028501612524856122be565b8060005b8581101561255f5784840389528161254085826124dc565b945061254b836124f0565b925060208a01995050600181019050612528565b50829750879550505050505092915050565b6000602082019050818103600083015261258b81846124fd565b905092915050565b7f4e487b7100000000000000000000000000000000000000000000000000000000600052601160045260246000fd5b60006125cd82611935565b91506125d883611935565b9250828210156125eb576125ea612593565b5b828203905092915050565b600061260182611809565b915061ffff820361261557612614612593565b5b60018201905091905056fe608060405234801561001057600080fd5b506105d9806100206000396000f3fe608060405234801561001057600080fd5b506004361061002b5760003560e01c80634851df6014610030575b600080fd5b61004a600480360381019061004591906104dd565b61004c565b005b6000815103610090576040517f08c379a000000000000000000000000000000000000000000000000000000000815260040161008790610583565b60405180910390fd5b50565b6000604051905090565b600080fd5b600080fd5b600080fd5b6000601f19601f8301169050919050565b7f4e487b7100000000000000000000000000000000000000000000000000000000600052604160045260246000fd5b6100f5826100ac565b810181811067ffffffffffffffff82111715610114576101136100bd565b5b80604052505050565b6000610127610093565b905061013382826100ec565b919050565b600067ffffffffffffffff821115610153576101526100bd565b5b602082029050602081019050919050565b600080fd5b600080fd5b600080fd5b600080fd5b600067ffffffffffffffff821115610193576101926100bd565b5b61019c826100ac565b9050602081019050919050565b82818337600083830152505050565b60006101cb6101c684610178565b61011d565b9050828152602081018484840111156101e7576101e6610173565b5b6101f28482856101a9565b509392505050565b600082601f83011261020f5761020e6100a7565b5b813561021f8482602086016101b8565b91505092915050565b6000819050919050565b61023b81610228565b811461024657600080fd5b50565b60008135905061025881610232565b92915050565b600073ffffffffffffffffffffffffffffffffffffffff82169050919050565b60006102898261025e565b9050919050565b6102998161027e565b81146102a457600080fd5b50565b6000813590506102b681610290565b92915050565b600061012082840312156102d3576102d2610169565b5b6102de61012061011d565b9050600082013567ffffffffffffffff8111156102fe576102fd61016e565b5b61030a848285016101fa565b600083015250602061031e84828501610249565b602083015250604061033284828501610249565b604083015250606061034684828501610249565b606083015250608082013567ffffffffffffffff81111561036a5761036961016e565b5b610376848285016101fa565b60808301525060a082013567ffffffffffffffff81111561039a5761039961016e565b5b6103a6848285016101fa565b60a08301525060c06103ba848285016102a7565b60c08301525060e082013567ffffffffffffffff8111156103de576103dd61016e565b5b6103ea848285016101fa565b60e08301525061010082013567ffffffffffffffff81111561040f5761040e61016e565b5b61041b848285016101fa565b6101008301525092915050565b600061043b61043684610138565b61011d565b9050808382526020820190506020840283018581111561045e5761045d610164565b5b835b818110156104a557803567ffffffffffffffff811115610483576104826100a7565b5b80860161049089826102bc565b85526020850194505050602081019050610460565b5050509392505050565b600082601f8301126104c4576104c36100a7565b5b81356104d4848260208601610428565b91505092915050565b6000602082840312156104f3576104f261009d565b5b600082013567ffffffffffffffff811115610511576105106100a2565b5b61051d848285016104af565b91505092915050565b600082825260208201905092915050565b7f54686973206974656d206973206e6f7420696e20746865204c69737400000000600082015250565b600061056d601c83610526565b915061057882610537565b602082019050919050565b6000602082019050818103600083015261059c81610560565b905091905056fea26469706673582212208a7e2196bd3280b2cbf641bd1cf7710b13e9ec4e6e1782038f5db352a2df0fd364736f6c634300080d0033608060405234801561001057600080fd5b506105d9806100206000396000f3fe608060405234801561001057600080fd5b506004361061002b5760003560e01c80631502cf0b14610030575b600080fd5b61004a600480360381019061004591906104dd565b61004c565b005b6000815114610090576040517f08c379a000000000000000000000000000000000000000000000000000000000815260040161008790610583565b60405180910390fd5b50565b6000604051905090565b600080fd5b600080fd5b600080fd5b6000601f19601f8301169050919050565b7f4e487b7100000000000000000000000000000000000000000000000000000000600052604160045260246000fd5b6100f5826100ac565b810181811067ffffffffffffffff82111715610114576101136100bd565b5b80604052505050565b6000610127610093565b905061013382826100ec565b919050565b600067ffffffffffffffff821115610153576101526100bd565b5b602082029050602081019050919050565b600080fd5b600080fd5b600080fd5b600080fd5b600067ffffffffffffffff821115610193576101926100bd565b5b61019c826100ac565b9050602081019050919050565b82818337600083830152505050565b60006101cb6101c684610178565b61011d565b9050828152602081018484840111156101e7576101e6610173565b5b6101f28482856101a9565b509392505050565b600082601f83011261020f5761020e6100a7565b5b813561021f8482602086016101b8565b91505092915050565b6000819050919050565b61023b81610228565b811461024657600080fd5b50565b60008135905061025881610232565b92915050565b600073ffffffffffffffffffffffffffffffffffffffff82169050919050565b60006102898261025e565b9050919050565b6102998161027e565b81146102a457600080fd5b50565b6000813590506102b681610290565b92915050565b600061012082840312156102d3576102d2610169565b5b6102de61012061011d565b9050600082013567ffffffffffffffff8111156102fe576102fd61016e565b5b61030a848285016101fa565b600083015250602061031e84828501610249565b602083015250604061033284828501610249565b604083015250606061034684828501610249565b606083015250608082013567ffffffffffffffff81111561036a5761036961016e565b5b610376848285016101fa565b60808301525060a082013567ffffffffffffffff81111561039a5761039961016e565b5b6103a6848285016101fa565b60a08301525060c06103ba848285016102a7565b60c08301525060e082013567ffffffffffffffff8111156103de576103dd61016e565b5b6103ea848285016101fa565b60e08301525061010082013567ffffffffffffffff81111561040f5761040e61016e565b5b61041b848285016101fa565b6101008301525092915050565b600061043b61043684610138565b61011d565b9050808382526020820190506020840283018581111561045e5761045d610164565b5b835b818110156104a557803567ffffffffffffffff811115610483576104826100a7565b5b80860161049089826102bc565b85526020850194505050602081019050610460565b5050509392505050565b600082601f8301126104c4576104c36100a7565b5b81356104d4848260208601610428565b91505092915050565b6000602082840312156104f3576104f261009d565b5b600082013567ffffffffffffffff811115610511576105106100a2565b5b61051d848285016104af565b91505092915050565b600082825260208201905092915050565b7f476976656e2073657269616c20494420697320616c72656164792074616b656e600082015250565b600061056d602083610526565b915061057882610537565b602082019050919050565b6000602082019050818103600083015261059c81610560565b905091905056fea2646970667358221220da5d78084ae9f490a4e138de1e1417224d3b36fc2853449eb34afcc28465631c64736f6c634300080d0033a26469706673582212203cef6a0d257966804aba1355fa6e2e517db290035797661d294f517ab2ea414264736f6c634300080d0033",
  "immutableReferences": {},
  "source": "//SPDX-License-Identifier: MIT\r\npragma solidity ^0.8.0;\r\n\r\nlibrary Product_Lib{\r\n  struct Product {\r\n    string name;//\r\n    uint256 manufacturingDate;//\r\n    uint256 transferDate;//\r\n    uint256 expiryDate;//\r\n    string currentOwner;//\r\n    string OwnerlicenseNumber;//\r\n    address currentOwnerHash;//\r\n    string MedicineID;//\r\n    string qrCode;//\r\n  }\r\n}\r\n\r\ncontract Product_Exist {\r\n  function checkSerialNumber(Product_Lib.Product[] memory product) public pure {\r\n    require(product.length == 0, \"Given serial ID is already taken\");\r\n  }\r\n}\r\n\r\ncontract Product_Exist_For_Updating {\r\n  function exist(Product_Lib.Product[] memory product) public pure {\r\n    require(product.length != 0, \"This item is not in the List\");\r\n  }\r\n}\r\n\r\n\r\ncontract ProductVerification { \r\n    \r\n    uint16 counter;\r\n    address ownerHash;\r\n    \r\n    constructor() public {\r\n      require(msg.sender != address(0), \"no-owner-provided\");\r\n      ownerHash = msg.sender;\r\n      counter = 0;\r\n    }\r\n     \r\n    mapping(uint16 => Product_Lib.Product[]) public products;\r\n    \r\n    event ErrorLogging(string reason);\r\n    function addProduct(string memory _name, uint256 _manufacturingDate, uint256 _transferDate, uint256 _expiryDate, string memory _currentOwner, string memory _licenseNumber, string memory _qrCode,string memory _medicineID, address _currentOwnerHash ) public payable{\r\n    \r\n      Product_Exist exist = new Product_Exist();\r\n      \r\n      try exist.checkSerialNumber(products[counter]){\r\n        products[counter].push(Product_Lib.Product(_name, _manufacturingDate, _transferDate, _expiryDate, _currentOwner, _licenseNumber, _currentOwnerHash, _medicineID, _qrCode));\r\n        incrementcounter(); \r\n      } \r\n      catch Error(string memory reason){\r\n        emit  ErrorLogging(reason);\r\n      }\r\n    }\r\n    \r\n    event ErrorLoggingWhileUpdating(string reason);\r\n    function updateOwnership(uint16 index, uint256 _transferDate,string memory _updateOwner, string memory _licenseNumber, address _updateOwnerHash) public payable{\r\n      Product_Lib.Product[] memory product = products[index];\r\n      \r\n      Product_Exist_For_Updating updating_allowed = new Product_Exist_For_Updating();\r\n\r\n      try updating_allowed.exist(product){\r\n        products[index].push(Product_Lib.Product(product[0].name, product[0].manufacturingDate, _transferDate, product[0].expiryDate, _updateOwner, _licenseNumber, _updateOwnerHash, product[0].MedicineID, product[0].qrCode));\r\n      }\r\n\r\n      catch Error(string memory reason){\r\n        emit  ErrorLoggingWhileUpdating(reason);\r\n      }\r\n    }\r\n\r\n    function returnSize() public view returns(uint16){\r\n      return counter;\r\n    }\r\n\r\n    function returnDetails(uint16 index) public view returns(Product_Lib.Product[] memory){\r\n      return products[index];\r\n    }\r\n\r\n    function currentOwner(uint16 index) public view returns(Product_Lib.Product memory){\r\n      Product_Lib.Product[] memory product = products[index];\r\n      uint len = product.length;\r\n      if(len!=0){\r\n        return product[len-1];\r\n      }else{\r\n        Product_Lib.Product memory dummyProduct;\r\n        return dummyProduct;\r\n      }\r\n    }\r\n\r\n    function incrementcounter() private{\r\n      counter++;\r\n    }\r\n}",
  "sourcePath": "C:\\Users\\Bharat Swami\\OneDrive\\Desktop\\seminar\\fake_medication_system\\contracts\\ProductVerification.sol",
  "compiler": {
    "name": "solc",
    "version": "0.8.13+commit.abaa5c0e.Emscripten.clang"
  },
  "schemaVersion": "3.4.13",
  "updatedAt": "2023-04-18T17:42:41.445Z",
  "networkType": "ethereum",
  "devdoc": {
    "kind": "dev",
    "methods": {},
    "version": 1
  },
  "userdoc": {
    "kind": "user",
    "methods": {},
    "version": 1
  }
}